:100AFE002042240000000000000000000000000062
:100B0E0000000000000000000000000000000000D7
:100B1E0000000000000000000000000000000000C7
:100B2E0000000000000000000000000000000000B7
:100B3E00000000000004660000000002220000C158
:060B4E0001012100C100BD
:100AA100120BA4120BD5120BB630014CAC22AD23A4
:100AB100EC12087EE4FBFA794878441208006002DF
:100AC100500F7590FF752203752320C201C2028069
:100AD100D8120A3E856890E4FFFE20021774662F43
:100AE100F8E6F5993099FDC2990FBF00010EEF6448
:0D0AF100044E70E6D20280B17590FF80AC1B
:100BA400758922758C8D758A8DD2A9D28CD2AFD2DB
:020BB400B92264
:090BD500D288D2A8D2AFC2B82226
:100BB600C29FD29EE4F587758DFD758BFDD28E2280
:03000B00020BC61F
:0F0BC600C0E00523E52370020522C28DD0E03286
:0300030002091AD5
:0D091A00C0E0C0F0C083C082C0D075D0081E
:10092700C28920003FAC22AD23EC12087EE4FBFA1B
:1009370079D078421208006002505FAC22AD23ECF8
:1009470012087EE4FBFA79E07842120800404B7502
:100957002100D200E52125E02424F8A62208A623B9
:1009670005218036300031D3E521648094A05028DA
:10097700E52125E02424F8A62208A6230521D3E5AE
:1009870021648094A05004C201800FC3E5216480D4
:1009970094A14006D2018002C2007522007523008F
:0B09A700D0D0D082D083D0F0D0E0325E
:100A3E00E4F512F513751000751101AF1374662FDE
:100A4E00F8C000E6FEC313D000F6EF75F008A4253B
:100A5E001125E02424F8E6FC08E6FDEC12087EE4FD
:100A6E00FBFA79407841120800600250097466253D
:100A7E0013F8E64480F60511E511700205106409BD
:100A8E00451070B70513E513700205126404451284
:020A9E0070A343
:010AA0002233
:040B7D00AB07AA0612
:100B81009000007C007DC8AF03AE021208B7EF24CD
:100B9100FFFFEE34FFFED3E5829FE5839E5003A362
:020BA10080E1F1
:010BA300222F
:100B5500E4FDFCEF24FFFBEE34FFFAD3ED9BEC9AAA
:100B65005015E4FBFA0BBB00010AEB64794A70F5FA
:070B75000DBD00010C80DC46
:010B7C002256
:1008000074F8CC6480CCC86480C8F58204604FC39F
:10081000EB9FF5F0EA9E42F0E99D42F0E89C45F03E
:10082000603C501DE5825FFFE582D313CB5BCBF4C8
:100830002B5582FB50280ABA002409B900200880F1
:100840001DE5825BFBE582D313CF5FCFF4C3132F8B
:100850005582FF50090EBE00050DBD00010CC3EB13
:100860009FF5F0EA9E42F0E99D42F0E89C45F06079
:0908700007CC4820E701B3EC229B
:1008790075F020800E75F010800575F0087D007EFA
:10088900007F003392D530D50312090CEC334010A8
:10089900EF33FFEE33FEED33FDEC33FCD5F0ED2203
:0E08A900E5F0247EA2D513CC92E7CDCEFF223F
:030000000209B240
:0C09B200787FE4F6D8FD7581690209F930
:1008B700BC000BBE0029EF8DF084FFADF022E4CC25
:1008C700F875F008EF2FFFEE33FEEC33FCEE9DECEE
:1008D700984005FCEE9DFE0FD5F0E9E4CEFD22ED34
:1008E700F8F5F0EE8420D21CFEADF075F008EF2F7E
:1008F700FFED33FD4007985006D5F0F222C398FD6F
:050907000FD5F0EA220B
:0E090C00C3E49FFFE49EFEE49DFDE49CFC22FC
:1009BE00020AA1E493A3F8E493A34003F68001F2A4
:1009CE0008DFF48029E493A3F85407240CC8C3333A
:1009DE00C4540F4420C8834004F456800146F6DF09
:1009EE00E4800B0102040810204080900AFEE47E91
:1009FE00019360BCA3FF543F30E509541FFEE493FE
:100A0E00A360010ECF54C025E060A840B8E493A3C4
:100A1E00FAE493A3F8E493A3C8C582C8CAC583CAEF
:100A2E00F0A3C8C582C8CAC583CADFE9DEE780BEA7
:010B540000A0
:00000001FF
